{
  "contractName": "Factory",
  "abi": [
    {
      "inputs": [
        {
          "internalType": "string",
          "name": "_pn",
          "type": "string"
        },
        {
          "internalType": "uint256",
          "name": "_duration",
          "type": "uint256"
        }
      ],
      "name": "createLottery",
      "outputs": [],
      "stateMutability": "payable",
      "type": "function",
      "payable": true
    },
    {
      "inputs": [],
      "name": "getLotteries",
      "outputs": [
        {
          "internalType": "contract Lottery[]",
          "name": "",
          "type": "address[]"
        }
      ],
      "stateMutability": "view",
      "type": "function",
      "constant": true
    }
  ],
  "bytecode": "0x608060405234801561001057600080fd5b50611a1c806100206000396000f3fe6080604052600436106200002c5760003560e01c8063bcc82ec41462000031578063f8bdd72f1462000061575b600080fd5b3480156200003e57600080fd5b506200004962000081565b604051620000589190620003aa565b60405180910390f35b6200007f60048036038101906200007991906200025d565b62000111565b005b606060008054806020026020016040519081016040528092919081815260200182805480156200010757602002820191906000526020600020905b8160009054906101000a900473ffffffffffffffffffffffffffffffffffffffff1673ffffffffffffffffffffffffffffffffffffffff1681526020019060010190808311620000bc575b5050505050905090565b60003483836040516200012490620001ba565b62000131929190620003ce565b6040518091039082f09050801580156200014f573d6000803e3d6000fd5b5090506000819080600181540180825580915050600190039060005260206000200160009091909190916101000a81548173ffffffffffffffffffffffffffffffffffffffff021916908373ffffffffffffffffffffffffffffffffffffffff160217905550505050565b6113e1806200060683390190565b6000620001df620001d9846200042b565b62000402565b905082815260208101848484011115620001fe57620001fd620005cb565b5b6200020b8482856200051c565b509392505050565b600082601f8301126200022b576200022a620005c6565b5b81356200023d848260208601620001c8565b91505092915050565b6000813590506200025781620005eb565b92915050565b60008060408385031215620002775762000276620005d5565b5b600083013567ffffffffffffffff811115620002985762000297620005d0565b5b620002a68582860162000213565b9250506020620002b98582860162000246565b9150509250929050565b6000620002d1838362000347565b60208301905092915050565b6000620002ea8262000471565b620002f6818562000494565b9350620003038362000461565b8060005b838110156200033a5781516200031e8882620002c3565b97506200032b8362000487565b92505060018101905062000307565b5085935050505092915050565b6200035281620004e0565b82525050565b600062000365826200047c565b620003718185620004a5565b9350620003838185602086016200052b565b6200038e81620005da565b840191505092915050565b620003a481620004d6565b82525050565b60006020820190508181036000830152620003c68184620002dd565b905092915050565b60006040820190508181036000830152620003ea818562000358565b9050620003fb602083018462000399565b9392505050565b60006200040e62000421565b90506200041c828262000561565b919050565b6000604051905090565b600067ffffffffffffffff82111562000449576200044862000597565b5b6200045482620005da565b9050602081019050919050565b6000819050602082019050919050565b600081519050919050565b600081519050919050565b6000602082019050919050565b600082825260208201905092915050565b600082825260208201905092915050565b600073ffffffffffffffffffffffffffffffffffffffff82169050919050565b6000819050919050565b6000620004ed82620004f4565b9050919050565b6000620005018262000508565b9050919050565b60006200051582620004b6565b9050919050565b82818337600083830152505050565b60005b838110156200054b5780820151818401526020810190506200052e565b838111156200055b576000848401525b50505050565b6200056c82620005da565b810181811067ffffffffffffffff821117156200058e576200058d62000597565b5b80604052505050565b7f4e487b7100000000000000000000000000000000000000000000000000000000600052604160045260246000fd5b600080fd5b600080fd5b600080fd5b600080fd5b6000601f19601f8301169050919050565b620005f681620004d6565b81146200060257600080fd5b5056fe6080604052604051620013e1380380620013e183398181016040528101906200002991906200021e565b33600660006101000a81548173ffffffffffffffffffffffffffffffffffffffff021916908373ffffffffffffffffffffffffffffffffffffffff16021790555060006004819055506000600381905550670de0b6b3a76400006002819055508160009080519060200190620000a1929190620000d9565b508042620000b09190620002e3565b6001819055506001600660146101000a81548160ff0219169083151502179055505050620004b8565b828054620000e79062000380565b90600052602060002090601f0160209004810192826200010b576000855562000157565b82601f106200012657805160ff191683800117855562000157565b8280016001018555821562000157579182015b828111156200015657825182559160200191906001019062000139565b5b5090506200016691906200016a565b5090565b5b80821115620001855760008160009055506001016200016b565b5090565b6000620001a06200019a84620002ad565b62000284565b905082815260208101848484011115620001bf57620001be6200047e565b5b620001cc8482856200034a565b509392505050565b600082601f830112620001ec57620001eb62000479565b5b8151620001fe84826020860162000189565b91505092915050565b60008151905062000218816200049e565b92915050565b6000806040838503121562000238576200023762000488565b5b600083015167ffffffffffffffff81111562000259576200025862000483565b5b6200026785828601620001d4565b92505060206200027a8582860162000207565b9150509250929050565b600062000290620002a3565b90506200029e8282620003b6565b919050565b6000604051905090565b600067ffffffffffffffff821115620002cb57620002ca6200044a565b5b620002d6826200048d565b9050602081019050919050565b6000620002f08262000340565b9150620002fd8362000340565b9250827fffffffffffffffffffffffffffffffffffffffffffffffffffffffffffffffff03821115620003355762000334620003ec565b5b828201905092915050565b6000819050919050565b60005b838110156200036a5780820151818401526020810190506200034d565b838111156200037a576000848401525b50505050565b600060028204905060018216806200039957607f821691505b60208210811415620003b057620003af6200041b565b5b50919050565b620003c1826200048d565b810181811067ffffffffffffffff82111715620003e357620003e26200044a565b5b80604052505050565b7f4e487b7100000000000000000000000000000000000000000000000000000000600052601160045260246000fd5b7f4e487b7100000000000000000000000000000000000000000000000000000000600052602260045260246000fd5b7f4e487b7100000000000000000000000000000000000000000000000000000000600052604160045260246000fd5b600080fd5b600080fd5b600080fd5b600080fd5b6000601f19601f8301169050919050565b620004a98162000340565b8114620004b557600080fd5b50565b610f1980620004c86000396000f3fe60806040526004361061007f5760003560e01c80634b6753bc1161004e5780634b6753bc146102e35780638b0e9f3f1461030e5780638da5cb5b14610339578063a2392a931461036457610241565b80630eecae21146102465780632e52d6061461025057806335c1d3491461027b578063375b3c0a146102b857610241565b36610241576002543410156100c9576040517f08c379a00000000000000000000000000000000000000000000000000000000081526004016100c090610a4f565b60405180910390fd5b600660009054906101000a900473ffffffffffffffffffffffffffffffffffffffff1673ffffffffffffffffffffffffffffffffffffffff163373ffffffffffffffffffffffffffffffffffffffff16141561015a576040517f08c379a000000000000000000000000000000000000000000000000000000000815260040161015190610a0f565b60405180910390fd5b60011515600660149054906101000a900460ff161515146101b0576040517f08c379a00000000000000000000000000000000000000000000000000000000081526004016101a790610a2f565b60405180910390fd5b346003546101be9190610ae6565b6003819055506005339080600181540180825580915050600190039060005260206000200160009091909190916101000a81548173ffffffffffffffffffffffffffffffffffffffff021916908373ffffffffffffffffffffffffffffffffffffffff1602179055506004600081548092919061023a90610c7a565b9190505550005b600080fd5b61024e61038f565b005b34801561025c57600080fd5b5061026561065a565b6040516102729190610aaf565b60405180910390f35b34801561028757600080fd5b506102a2600480360381019061029d9190610821565b610660565b6040516102af91906109d2565b60405180910390f35b3480156102c457600080fd5b506102cd61069f565b6040516102da9190610aaf565b60405180910390f35b3480156102ef57600080fd5b506102f86106a5565b6040516103059190610aaf565b60405180910390f35b34801561031a57600080fd5b506103236106ab565b6040516103309190610aaf565b60405180910390f35b34801561034557600080fd5b5061034e6106b1565b60405161035b91906109b7565b60405180910390f35b34801561037057600080fd5b506103796106d7565b60405161038691906109ed565b60405180910390f35b60015442116103d3576040517f08c379a00000000000000000000000000000000000000000000000000000000081526004016103ca90610a6f565b60405180910390fd5b6002600580549050101561041c576040517f08c379a000000000000000000000000000000000000000000000000000000000815260040161041390610a8f565b60405180910390fd5b60011515600660149054906101000a900460ff16151514610472576040517f08c379a000000000000000000000000000000000000000000000000000000000815260040161046990610a2f565b60405180910390fd5b60006005808054905044426005805490506040516020016104959392919061097a565b6040516020818303038152906040528051906020012060001c6104b89190610ccd565b815481106104c9576104c8610d8b565b5b9060005260206000200160009054906101000a900473ffffffffffffffffffffffffffffffffffffffff16905060006064605a476105079190610b6d565b6105119190610b3c565b90508173ffffffffffffffffffffffffffffffffffffffff166108fc829081150290604051600060405180830381858888f19350505050158015610559573d6000803e3d6000fd5b50600660009054906101000a900473ffffffffffffffffffffffffffffffffffffffff1673ffffffffffffffffffffffffffffffffffffffff166108fc6064600a476105a59190610b6d565b6105af9190610b3c565b9081150290604051600060405180830381858888f193505050501580156105da573d6000803e3d6000fd5b50600067ffffffffffffffff8111156105f6576105f5610dba565b5b6040519080825280602002602001820160405280156106245781602001602082028036833780820191505090505b506005908051906020019061063a929190610765565b506000600660146101000a81548160ff0219169083151502179055505050565b60045481565b6005818154811061067057600080fd5b906000526020600020016000915054906101000a900473ffffffffffffffffffffffffffffffffffffffff1681565b60025481565b60015481565b60035481565b600660009054906101000a900473ffffffffffffffffffffffffffffffffffffffff1681565b600080546106e490610c48565b80601f016020809104026020016040519081016040528092919081815260200182805461071090610c48565b801561075d5780601f106107325761010080835404028352916020019161075d565b820191906000526020600020905b81548152906001019060200180831161074057829003601f168201915b505050505081565b8280548282559060005260206000209081019282156107de579160200282015b828111156107dd5782518260006101000a81548173ffffffffffffffffffffffffffffffffffffffff021916908373ffffffffffffffffffffffffffffffffffffffff16021790555091602001919060010190610785565b5b5090506107eb91906107ef565b5090565b5b808211156108085760008160009055506001016107f0565b5090565b60008135905061081b81610ecc565b92915050565b60006020828403121561083757610836610de9565b5b60006108458482850161080c565b91505092915050565b61085781610bd9565b82525050565b61086681610bc7565b82525050565b600061087782610aca565b6108818185610ad5565b9350610891818560208601610c15565b61089a81610dee565b840191505092915050565b60006108b2601083610ad5565b91506108bd82610dff565b602082019050919050565b60006108d5601283610ad5565b91506108e082610e28565b602082019050919050565b60006108f8601083610ad5565b915061090382610e51565b602082019050919050565b600061091b600983610ad5565b915061092682610e7a565b602082019050919050565b600061093e601783610ad5565b915061094982610ea3565b602082019050919050565b61095d81610c0b565b82525050565b61097461096f82610c0b565b610cc3565b82525050565b60006109868286610963565b6020820191506109968285610963565b6020820191506109a68284610963565b602082019150819050949350505050565b60006020820190506109cc600083018461085d565b92915050565b60006020820190506109e7600083018461084e565b92915050565b60006020820190508181036000830152610a07818461086c565b905092915050565b60006020820190508181036000830152610a28816108a5565b9050919050565b60006020820190508181036000830152610a48816108c8565b9050919050565b60006020820190508181036000830152610a68816108eb565b9050919050565b60006020820190508181036000830152610a888161090e565b9050919050565b60006020820190508181036000830152610aa881610931565b9050919050565b6000602082019050610ac46000830184610954565b92915050565b600081519050919050565b600082825260208201905092915050565b6000610af182610c0b565b9150610afc83610c0b565b9250827fffffffffffffffffffffffffffffffffffffffffffffffffffffffffffffffff03821115610b3157610b30610cfe565b5b828201905092915050565b6000610b4782610c0b565b9150610b5283610c0b565b925082610b6257610b61610d2d565b5b828204905092915050565b6000610b7882610c0b565b9150610b8383610c0b565b9250817fffffffffffffffffffffffffffffffffffffffffffffffffffffffffffffffff0483118215151615610bbc57610bbb610cfe565b5b828202905092915050565b6000610bd282610beb565b9050919050565b6000610be482610beb565b9050919050565b600073ffffffffffffffffffffffffffffffffffffffff82169050919050565b6000819050919050565b60005b83811015610c33578082015181840152602081019050610c18565b83811115610c42576000848401525b50505050565b60006002820490506001821680610c6057607f821691505b60208210811415610c7457610c73610d5c565b5b50919050565b6000610c8582610c0b565b91507fffffffffffffffffffffffffffffffffffffffffffffffffffffffffffffffff821415610cb857610cb7610cfe565b5b600182019050919050565b6000819050919050565b6000610cd882610c0b565b9150610ce383610c0b565b925082610cf357610cf2610d2d565b5b828206905092915050565b7f4e487b7100000000000000000000000000000000000000000000000000000000600052601160045260246000fd5b7f4e487b7100000000000000000000000000000000000000000000000000000000600052601260045260246000fd5b7f4e487b7100000000000000000000000000000000000000000000000000000000600052602260045260246000fd5b7f4e487b7100000000000000000000000000000000000000000000000000000000600052603260045260246000fd5b7f4e487b7100000000000000000000000000000000000000000000000000000000600052604160045260246000fd5b600080fd5b6000601f19601f8301169050919050565b7f6f776e65722063616e27742073656e6400000000000000000000000000000000600082015250565b7f6c6f7474657279206e6f74206163746976650000000000000000000000000000600082015250565b7f6e6f7420656e6f756768207374616b6500000000000000000000000000000000600082015250565b7f746f6f206561726c790000000000000000000000000000000000000000000000600082015250565b7f6e6f7420656e6f756768207061727469636970616e7473000000000000000000600082015250565b610ed581610c0b565b8114610ee057600080fd5b5056fea2646970667358221220b82ec1206b74feff36b5899822ff4eb333ed76b96a9b43de59a2e33c41add84c64736f6c63430008070033a2646970667358221220e6231b2b1a872839e83151a45bdb0f4f3693cae329ca852fe823d74f587c8bf564736f6c63430008070033",
  "immutableReferences": {},
  "source": "// SPDX-License-Identifier: GPL-3.0\r\n\r\npragma solidity >=0.5.0 <0.9.0;\r\n\r\nimport \"./Lottery.sol\";\r\n\r\ncontract Factory{\r\n    Lottery[] lotteries;\r\n    function createLottery(string memory _pn, uint _duration) public payable{\r\n        Lottery newLottery=(new Lottery){value:msg.value}({pn: _pn, duration:_duration});\r\n        lotteries.push(newLottery);\r\n    }\r\n    function getLotteries() public view returns(Lottery[] memory){\r\n        return lotteries;\r\n    }\r\n}",
  "sourcePath": "D:\\webdev\\IBC-main2\\contracts\\Factory.sol",
  "compiler": {
    "name": "solc",
    "version": "0.8.7+commit.e28d00a7.Emscripten.clang"
  },
  "schemaVersion": "3.4.3",
  "updatedAt": "2021-12-13T11:41:53.444Z",
  "networkType": "ethereum",
  "devdoc": {
    "kind": "dev",
    "methods": {},
    "version": 1
  },
  "userdoc": {
    "kind": "user",
    "methods": {},
    "version": 1
  }
}