{
  "contractName": "Lottery",
  "abi": [
    {
      "inputs": [
        {
          "internalType": "string",
          "name": "pn",
          "type": "string"
        },
        {
          "internalType": "uint256",
          "name": "duration",
          "type": "uint256"
        }
      ],
      "stateMutability": "nonpayable",
      "type": "constructor"
    },
    {
      "inputs": [],
      "name": "closingTime",
      "outputs": [
        {
          "internalType": "uint256",
          "name": "",
          "type": "uint256"
        }
      ],
      "stateMutability": "view",
      "type": "function",
      "constant": true
    },
    {
      "inputs": [],
      "name": "minStake",
      "outputs": [
        {
          "internalType": "uint256",
          "name": "",
          "type": "uint256"
        }
      ],
      "stateMutability": "view",
      "type": "function",
      "constant": true
    },
    {
      "inputs": [],
      "name": "n",
      "outputs": [
        {
          "internalType": "uint256",
          "name": "",
          "type": "uint256"
        }
      ],
      "stateMutability": "view",
      "type": "function",
      "constant": true
    },
    {
      "inputs": [],
      "name": "owner",
      "outputs": [
        {
          "internalType": "address",
          "name": "",
          "type": "address"
        }
      ],
      "stateMutability": "view",
      "type": "function",
      "constant": true
    },
    {
      "inputs": [
        {
          "internalType": "uint256",
          "name": "",
          "type": "uint256"
        }
      ],
      "name": "participants",
      "outputs": [
        {
          "internalType": "address payable",
          "name": "",
          "type": "address"
        }
      ],
      "stateMutability": "view",
      "type": "function",
      "constant": true
    },
    {
      "inputs": [],
      "name": "potName",
      "outputs": [
        {
          "internalType": "string",
          "name": "",
          "type": "string"
        }
      ],
      "stateMutability": "view",
      "type": "function",
      "constant": true
    },
    {
      "inputs": [],
      "name": "totalStake",
      "outputs": [
        {
          "internalType": "uint256",
          "name": "",
          "type": "uint256"
        }
      ],
      "stateMutability": "view",
      "type": "function",
      "constant": true
    },
    {
      "stateMutability": "payable",
      "type": "receive",
      "payable": true
    },
    {
      "inputs": [],
      "name": "draw",
      "outputs": [],
      "stateMutability": "payable",
      "type": "function",
      "payable": true
    }
  ],
  "bytecode": "0x60806040523480156200001157600080fd5b50604051620012a1380380620012a1833981810160405281019062000037919062000211565b33600660006101000a81548173ffffffffffffffffffffffffffffffffffffffff021916908373ffffffffffffffffffffffffffffffffffffffff16021790555060006004819055506000600381905550670de0b6b3a76400006002819055508160009080519060200190620000af929190620000cc565b508042620000be9190620002d6565b6001819055505050620004ab565b828054620000da9062000373565b90600052602060002090601f016020900481019282620000fe57600085556200014a565b82601f106200011957805160ff19168380011785556200014a565b828001600101855582156200014a579182015b82811115620001495782518255916020019190600101906200012c565b5b5090506200015991906200015d565b5090565b5b80821115620001785760008160009055506001016200015e565b5090565b6000620001936200018d84620002a0565b62000277565b905082815260208101848484011115620001b257620001b162000471565b5b620001bf8482856200033d565b509392505050565b600082601f830112620001df57620001de6200046c565b5b8151620001f18482602086016200017c565b91505092915050565b6000815190506200020b8162000491565b92915050565b600080604083850312156200022b576200022a6200047b565b5b600083015167ffffffffffffffff8111156200024c576200024b62000476565b5b6200025a85828601620001c7565b92505060206200026d85828601620001fa565b9150509250929050565b60006200028362000296565b9050620002918282620003a9565b919050565b6000604051905090565b600067ffffffffffffffff821115620002be57620002bd6200043d565b5b620002c98262000480565b9050602081019050919050565b6000620002e38262000333565b9150620002f08362000333565b9250827fffffffffffffffffffffffffffffffffffffffffffffffffffffffffffffffff03821115620003285762000327620003df565b5b828201905092915050565b6000819050919050565b60005b838110156200035d57808201518184015260208101905062000340565b838111156200036d576000848401525b50505050565b600060028204905060018216806200038c57607f821691505b60208210811415620003a357620003a26200040e565b5b50919050565b620003b48262000480565b810181811067ffffffffffffffff82111715620003d657620003d56200043d565b5b80604052505050565b7f4e487b7100000000000000000000000000000000000000000000000000000000600052601160045260246000fd5b7f4e487b7100000000000000000000000000000000000000000000000000000000600052602260045260246000fd5b7f4e487b7100000000000000000000000000000000000000000000000000000000600052604160045260246000fd5b600080fd5b600080fd5b600080fd5b600080fd5b6000601f19601f8301169050919050565b6200049c8162000333565b8114620004a857600080fd5b50565b610de680620004bb6000396000f3fe60806040526004361061007f5760003560e01c80634b6753bc1161004e5780634b6753bc1461028d5780638b0e9f3f146102b85780638da5cb5b146102e3578063a2392a931461030e576101eb565b80630eecae21146101f05780632e52d606146101fa57806335c1d34914610225578063375b3c0a14610262576101eb565b366101eb576002543410156100c9576040517f08c379a00000000000000000000000000000000000000000000000000000000081526004016100c090610945565b60405180910390fd5b600660009054906101000a900473ffffffffffffffffffffffffffffffffffffffff1673ffffffffffffffffffffffffffffffffffffffff163373ffffffffffffffffffffffffffffffffffffffff16141561015a576040517f08c379a000000000000000000000000000000000000000000000000000000000815260040161015190610925565b60405180910390fd5b3460035461016891906109dc565b6003819055506005339080600181540180825580915050600190039060005260206000200160009091909190916101000a81548173ffffffffffffffffffffffffffffffffffffffff021916908373ffffffffffffffffffffffffffffffffffffffff160217905550600460008154809291906101e490610b70565b9190505550005b600080fd5b6101f8610339565b005b34801561020657600080fd5b5061020f610593565b60405161021c91906109a5565b60405180910390f35b34801561023157600080fd5b5061024c6004803603810190610247919061075a565b610599565b60405161025991906108e8565b60405180910390f35b34801561026e57600080fd5b506102776105d8565b60405161028491906109a5565b60405180910390f35b34801561029957600080fd5b506102a26105de565b6040516102af91906109a5565b60405180910390f35b3480156102c457600080fd5b506102cd6105e4565b6040516102da91906109a5565b60405180910390f35b3480156102ef57600080fd5b506102f86105ea565b60405161030591906108cd565b60405180910390f35b34801561031a57600080fd5b50610323610610565b6040516103309190610903565b60405180910390f35b600154421161037d576040517f08c379a000000000000000000000000000000000000000000000000000000000815260040161037490610965565b60405180910390fd5b600260058054905010156103c6576040517f08c379a00000000000000000000000000000000000000000000000000000000081526004016103bd90610985565b60405180910390fd5b60006005808054905044426005805490506040516020016103e993929190610890565b6040516020818303038152906040528051906020012060001c61040c9190610bc3565b8154811061041d5761041c610c81565b5b9060005260206000200160009054906101000a900473ffffffffffffffffffffffffffffffffffffffff16905060006064605a4761045b9190610a63565b6104659190610a32565b90508173ffffffffffffffffffffffffffffffffffffffff166108fc829081150290604051600060405180830381858888f193505050501580156104ad573d6000803e3d6000fd5b50600660009054906101000a900473ffffffffffffffffffffffffffffffffffffffff1673ffffffffffffffffffffffffffffffffffffffff166108fc6064600a476104f99190610a63565b6105039190610a32565b9081150290604051600060405180830381858888f1935050505015801561052e573d6000803e3d6000fd5b50600067ffffffffffffffff81111561054a57610549610cb0565b5b6040519080825280602002602001820160405280156105785781602001602082028036833780820191505090505b506005908051906020019061058e92919061069e565b505050565b60045481565b600581815481106105a957600080fd5b906000526020600020016000915054906101000a900473ffffffffffffffffffffffffffffffffffffffff1681565b60025481565b60015481565b60035481565b600660009054906101000a900473ffffffffffffffffffffffffffffffffffffffff1681565b6000805461061d90610b3e565b80601f016020809104026020016040519081016040528092919081815260200182805461064990610b3e565b80156106965780601f1061066b57610100808354040283529160200191610696565b820191906000526020600020905b81548152906001019060200180831161067957829003601f168201915b505050505081565b828054828255906000526020600020908101928215610717579160200282015b828111156107165782518260006101000a81548173ffffffffffffffffffffffffffffffffffffffff021916908373ffffffffffffffffffffffffffffffffffffffff160217905550916020019190600101906106be565b5b5090506107249190610728565b5090565b5b80821115610741576000816000905550600101610729565b5090565b60008135905061075481610d99565b92915050565b6000602082840312156107705761076f610cdf565b5b600061077e84828501610745565b91505092915050565b61079081610acf565b82525050565b61079f81610abd565b82525050565b60006107b0826109c0565b6107ba81856109cb565b93506107ca818560208601610b0b565b6107d381610ce4565b840191505092915050565b60006107eb6010836109cb565b91506107f682610cf5565b602082019050919050565b600061080e6010836109cb565b915061081982610d1e565b602082019050919050565b60006108316009836109cb565b915061083c82610d47565b602082019050919050565b60006108546017836109cb565b915061085f82610d70565b602082019050919050565b61087381610b01565b82525050565b61088a61088582610b01565b610bb9565b82525050565b600061089c8286610879565b6020820191506108ac8285610879565b6020820191506108bc8284610879565b602082019150819050949350505050565b60006020820190506108e26000830184610796565b92915050565b60006020820190506108fd6000830184610787565b92915050565b6000602082019050818103600083015261091d81846107a5565b905092915050565b6000602082019050818103600083015261093e816107de565b9050919050565b6000602082019050818103600083015261095e81610801565b9050919050565b6000602082019050818103600083015261097e81610824565b9050919050565b6000602082019050818103600083015261099e81610847565b9050919050565b60006020820190506109ba600083018461086a565b92915050565b600081519050919050565b600082825260208201905092915050565b60006109e782610b01565b91506109f283610b01565b9250827fffffffffffffffffffffffffffffffffffffffffffffffffffffffffffffffff03821115610a2757610a26610bf4565b5b828201905092915050565b6000610a3d82610b01565b9150610a4883610b01565b925082610a5857610a57610c23565b5b828204905092915050565b6000610a6e82610b01565b9150610a7983610b01565b9250817fffffffffffffffffffffffffffffffffffffffffffffffffffffffffffffffff0483118215151615610ab257610ab1610bf4565b5b828202905092915050565b6000610ac882610ae1565b9050919050565b6000610ada82610ae1565b9050919050565b600073ffffffffffffffffffffffffffffffffffffffff82169050919050565b6000819050919050565b60005b83811015610b29578082015181840152602081019050610b0e565b83811115610b38576000848401525b50505050565b60006002820490506001821680610b5657607f821691505b60208210811415610b6a57610b69610c52565b5b50919050565b6000610b7b82610b01565b91507fffffffffffffffffffffffffffffffffffffffffffffffffffffffffffffffff821415610bae57610bad610bf4565b5b600182019050919050565b6000819050919050565b6000610bce82610b01565b9150610bd983610b01565b925082610be957610be8610c23565b5b828206905092915050565b7f4e487b7100000000000000000000000000000000000000000000000000000000600052601160045260246000fd5b7f4e487b7100000000000000000000000000000000000000000000000000000000600052601260045260246000fd5b7f4e487b7100000000000000000000000000000000000000000000000000000000600052602260045260246000fd5b7f4e487b7100000000000000000000000000000000000000000000000000000000600052603260045260246000fd5b7f4e487b7100000000000000000000000000000000000000000000000000000000600052604160045260246000fd5b600080fd5b6000601f19601f8301169050919050565b7f6f776e65722063616e27742073656e6400000000000000000000000000000000600082015250565b7f6e6f7420656e6f756768207374616b6500000000000000000000000000000000600082015250565b7f746f6f206561726c790000000000000000000000000000000000000000000000600082015250565b7f6e6f7420656e6f756768207061727469636970616e7473000000000000000000600082015250565b610da281610b01565b8114610dad57600080fd5b5056fea264697066735822122043ee841184dda85077c880f5281145d42b708cc028bd353383e6879744d5b24064736f6c63430008070033",
  "immutableReferences": {},
  "source": "// SPDX-License-Identifier: GPL-3.0\n\npragma solidity >=0.5.0 <0.9.0;\n\ncontract Lottery{\n\n    string public potName;\n    uint public closingTime;\n    uint public minStake;\n    uint public totalStake;\n    uint public n;\n    address payable[] public participants;\n    address public owner;\n\n    constructor(string memory pn, uint duration) public {\n        owner=msg.sender;\n        n=0;\n        totalStake=0;\n        minStake=1 ether;\n        potName=pn;\n        closingTime=block.timestamp+duration;\n    }\n\n    receive() external payable{\n        require(msg.value >= minStake, \"not enough stake\");\n        require(msg.sender != owner, \"owner can't send\");\n        totalStake=totalStake+msg.value;\n        participants.push(payable(msg.sender));\n        n++;\n    }\n\n    function draw() external payable {\n        require(block.timestamp > closingTime, \"too early\");\n        require(participants.length >= 2, \"not enough participants\");\n        address payable winner;\n        winner=participants[uint(keccak256(abi.encodePacked(block.difficulty, block.timestamp, participants.length)))%participants.length];\n        uint prize;\n        prize=(address(this).balance * 90) / 100;\n        winner.transfer(prize);\n        payable(owner).transfer((address(this).balance * 10) / 100);\n        participants=new address payable[](0);\n    }\n}",
  "sourcePath": "C:\\Users\\Anonymous\\Desktop\\Dapp\\contracts\\Lottery.sol",
  "compiler": {
    "name": "solc",
    "version": "0.8.7+commit.e28d00a7.Emscripten.clang"
  },
  "schemaVersion": "3.4.3",
  "updatedAt": "2021-12-13T09:19:46.593Z",
  "networkType": "ethereum",
  "devdoc": {
    "kind": "dev",
    "methods": {},
    "version": 1
  },
  "userdoc": {
    "kind": "user",
    "methods": {},
    "version": 1
  }
}